:020000041A00E0
:10000000008000102107001A7901001A7B01001AF4
:100010007D01001A7F01001A8101001A6E71FF53E1
:100020000000000000000000000000008301001A32
:100030008501001A000000008701001A811B001AC8
:10004000BB01001ABB01001ABB01001A000000002E
:10005000BB01001ABB01001ABB01001ABB01001A48
:10006000711D001ABB01001ABB01001ABB01001A66
:10007000C519001A051A001A451A001A891A001A19
:10008000BB01001ABB01001ABB01001ABB01001A18
:10009000BB01001ABB01001ABB01001ABB01001A08
:1000A000BD01001ABB01001A5D1D001A671D001A70
:1000B000BB01001ABB01001ABB01001ABB01001AE8
:1000C000AD21001AB721001AC121001ABB01001A84
:1000D000BB01001ABB01001ABB01001ABB01001AC8
:1000E000BB01001ABB01001ABB01001ABB01001AB8
:1000F00000000000BB01001ABB01001ABB01001A7E
:1001000000000000BB01001ABB01001ABB01001A6D
:10011000BB01001A342D001A000000101801000065
:10012000342D001A0000081000000000342D001AC1
:100130000000002000000000342D001A0080002084
:1001400000000000342D001A00C000200000000054
:100150001801001058000000000008100000000006
:1001600000000020000000000080002000000000CF
:1001700000C0002000000000FEE7FEE7FEE7FEE70B
:10018000FEE7FEE7FEE7FEE7FEE7002393420AD222
:1001900010B450F8044B41F8044B04339342F8D3A5
:1001A0005DF8044B7047704700238B4204D2002255
:1001B00040F8042B0433F8E77047FEE708B5002049
:1001C00001F0F4FC08BDFFFFFFFFFFFFFFFFFFFF93
:1001D000FFFFFFFFFFFFFFFFFFFFFFFFFFFFFFFF2F
:1001E000FFFFFFFFFFFFFFFFFFFFFFFFFFFFFFFF1F
:1001F000FFFFFFFFFFFFFFFFFFFFFFFFFFFFFFFF0F
:10020000FFFFFFFFFFFFFFFFFFFFFFFFFFFFFFFFFE
:10021000FFFFFFFFFFFFFFFFFFFFFFFFFFFFFFFFEE
:10022000FFFFFFFFFFFFFFFFFFFFFFFFFFFFFFFFDE
:10023000FFFFFFFFFFFFFFFFFFFFFFFFFFFFFFFFCE
:10024000FFFFFFFFFFFFFFFFFFFFFFFFFFFFFFFFBE
:10025000FFFFFFFFFFFFFFFFFFFFFFFFFFFFFFFFAE
:10026000FFFFFFFFFFFFFFFFFFFFFFFFFFFFFFFF9E
:10027000FFFFFFFFFFFFFFFFFFFFFFFFFFFFFFFF8E
:10028000FFFFFFFFFFFFFFFFFFFFFFFFFFFFFFFF7E
:10029000FFFFFFFFFFFFFFFFFFFFFFFFFFFFFFFF6E
:1002A000FFFFFFFFFFFFFFFFFFFFFFFFFFFFFFFF5E
:1002B000FFFFFFFFFFFFFFFFFFFFFFFFFFFFFFFF4E
:1002C000FFFFFFFFFFFFFFFFFFFFFFFFFFFFFFFF3E
:1002D000FFFFFFFFFFFFFFFFFFFFFFFFFFFFFFFF2E
:1002E000FFFFFFFFFFFFFFFFFFFFFFFFFFFFFFFF1E
:1002F000FFFFFFFFFFFFFFFFFFFFFFFFFFFFFFFF0E
:10030000014B01221A7070475801001008B5C0B2A5
:10031000002101F0F7FB08BD08B50021064801F0F7
:10032000D5FB064B1B7803B908BD044B00221A709D
:1003300000F072F8F8E700BF0103001A580100103E
:1003400008B501F023FD0021042001F0D3FE0021B7
:10035000082001F0CFFE0021012001F0CBFE00219A
:10036000022001F0C7FE0021032001F0C3FE02219C
:10037000042001F0BFFE0221082001F0BBFE022193
:10038000012001F0B7FE0221084601F0B3FE022170
:10039000032001F0AFFE00F027F80120FFF7B6FFC1
:1003A00001210F2001F0BAF9FFF7B6FFFCE708B50D
:1003B000042807D8DFE800F003070B0F130008201C
:1003C00001F0AAFE08BD042001F0A6FEFAE7012014
:1003D00001F0A2FEF6E7022001F09EFEF2E7032004
:1003E00001F09AFEEEE7FFFF10B50024094B1C70E8
:1003F00001210F2001F0BCF801210E2001F0B8F816
:1004000001210C2001F0B4F821460C2001F0B0F8D5
:1004100010BD00BF6501001010B57B4B1B78052B8C
:1004200009D8DFE803F003096279AE4D00F004F962
:10043000754B01221A7010BD744A138801339BB2A8
:100440001380B3F5FA7F2DD0714A138801339BB224
:10045000138047F2305293422BD06E49032001F0B3
:1004600061FC0028E7D06B4B1B78612BE3D16A4914
:10047000032001F057FC0028DDD0674B187800F00E
:100480001DF9664B187000210C2001F047F9604BF4
:1004900000221A805C4B05221A706321032001F0B0
:1004A00050FCC8E70E2001F0A2F9584B00221A8038
:1004B000CAE7574B00221A80534B02221A70CCE72E
:1004C00001210E2001F02AF9514A138801339BB211
:1004D0001380B3F57A7FAED1002111800E2001F098
:1004E0001DF9494B03221A70A5E701210F2001F0E5
:1004F00015F9474A138801339BB2138042F21072F8
:10050000934298D10021424B19800F2001F006F947
:100510003D4B01221A708EE701210C2001F0FEF8FC
:100520003F4B1B783F491944032001F0FBFB18B1F6
:100530003B4A1378013313700C2001F024F93A4B35
:10054000187010B9394B01221A70354B1B78052BE6
:100550007FF471AF00210C2001F0E0F800232C4A59
:1005600013802F4A1370314B1B7833B1264B012275
:100570001A702E4B00221A705DE7234B04221A706A
:1005800059E701210E2001F0C9F8294B1B780BB364
:100590000024274B1C700FE0204B1A780021214BC0
:1005A000185D00F0A8F8234B1870224B19782046EC
:1005B000FFF7FDFE0134E4B2042C0BD8002CEBD085
:1005C000164B1A780021174B185D00F081F8194B73
:1005D0001870EAE70E4A138801339BB21380C82BC8
:1005E0007FF429AF124B01221A7000210E2001F076
:1005F00095F8074B00221A806321032001F0A1FB2C
:10060000014B03221A7016E7650100101A01001051
:100610001C0100105D010010660100101F01001098
:100620001E010010600100105C0100101801001094
:10063000000000101901001008B5044B00221A70C8
:100640004FF4E131032001F02FFB08BD67010010DA
:1006500003460122914204DD13FB00F3DBB20132B9
:10066000F8E718467047FFFF2DE9D04357EC106BB1
:1006700010EE100A394601F0EDFF044601F0F8FED5
:100680008046894602460B463046394601F0A2FDB7
:100690000022084B01F0B6FF10B1E0B2BDE8D083F4
:1006A0000022054B4046494601F096FD01F0FAFF55
:1006B000C0B2F3E70000E03F0000F03F08B5A0F152
:1006C0003001C9B20220FFF7C3FF0138C0B208BD34
:1006D00008B53038C3B293420BD8B42000FB03F006
:1006E00090FBF2F001F0C4FE41EC100BFFF7BCFFF1
:1006F00008BDB420FCE708B53038C3B293420BD82C
:100700005A2000FB03F090FBF2F001F0B1FE41EC47
:10071000100BFFF7A9FF08BD5A20FCE77047FFFF49
:1007200010B572B6194B1A4A1A600433194A1A6086
:10073000002305E0184A4FF0FF3142F8231001333F
:10074000072BF7D962B6154B07E003F10C049A6842
:1007500059681868FFF719FD2346114A9342F4D3EC
:1007600006E01C46596854F8080BFFF71DFD2346A8
:100770000C4A9342F5D300F0B7FE02F035F9FFF7CB
:10078000CDFFFFF7DDFD30BFFDE700BF00310540C5
:100790000010DF10FFF7DF0180E200E01401001A13
:1007A0005001001A7801001A7047704700231C2B73
:1007B00012D810B4094A02EB830112F823404A7898
:1007C000488802EB4412064941F8220001331C2BF1
:1007D000F0D95DF8044B7047704700BF442A001AF7
:1007E0000060084010B5174AD2F8203123F4704356
:1007F00043F41043C2F82031D2F8243123F470437B
:1008000043F41043C2F8243101220F49062000F0BE
:1008100021FA00244CB10B4B5A6822F00C025A60AA
:100820005A6842F003025A6010BD084800EB840188
:1008300001238A78497810F8240000F0E3FC0134A1
:10084000E8E700BF0030044000CB280C402A001A23
:1008500008B5FFF7ABFFFFF7C5FF08BD0022052A6B
:1008600019D870B40C4911F8125001EB42014C78C0
:100870000A4B05F5006653F826100120A0400143FD
:1008800043F8261003EB4513002119550132052AC0
:10089000E8D970BC70477047C42A001A00400F4066
:1008A0000023032B16D830B40B4911F8132001EBA9
:1008B00043014D78094C02F5006254F822100120E2
:1008C000A84021EA000144F822100133032BEBD9A0
:1008D00030BC7047704700BFBC2A001A00400F4070
:1008E0000023082B16D830B40B4911F8132001EB64
:1008F00043014D78094C02F5006254F822100120A2
:10090000A84021EA000144F822100133082BEBD95A
:1009100030BC7047704700BFD02A001A00400F401B
:1009200010B582B0084C6946204600F053F9074ADA
:100930006946204600F06EF900226946204600F024
:1009400082F902B010BD00BF00300E40801A0600D0
:1009500010B50B4C204600F095F8636823F00403B3
:100960006360236823F0FF0343F007032360054916
:10097000204600F068F8636843F00203636010BD2E
:1009800000500C40A086010008B5002000F0A6F839
:10099000044B40F60802C3F8842C0349002000F001
:1009A000AFF808BD0060084040420F0010B5074C8A
:1009B000204600F0E1FC4FF4E131204600F026FD36
:1009C0000323E3600123E36510BD00BF00100C406A
:1009D00008B5FFF7EBFF094800F0AEF8FFF780FF1E
:1009E000FFF79EFFFFF7B4FFFFF7CEFFFFF736FFDD
:1009F000FFF756FF00F0DAF908BD00BF00400F40D6
:100A000008B5FFF7D3FF08BD034B984201D0832000
:100A10007047A520704700BF00500C40044B98421F
:100A200002D040F2022070474FF4F170704700BFCF
:100A300000500C40036823F47F43090289B2194334
:100A400001600261704770B506460D46FFF7E6FF8C
:100A500000F056FC02224FF0FF33002100E0214657
:100A6000AB420BD94C1C02FB04F3B0FBF3F39D42E9
:100A7000F6D2FF2CF3D902320021F1E73046FFF71E
:100A8000D9FF70BD10B50446FFF7BEFF00F01EFC95
:100A90002046FFF7C3FF00F019FC636823F004034E
:100AA0006360236823F0FF0343F0070323600249D8
:100AB0002046FFF7C8FF10BDA0860100012909D11B
:100AC000C0EBC0008200044B13441A69137DDBB2F3
:100AD000042BFBD0704700BF0400001070B5054622
:100AE000064EC400221A93003344988800F0EEFBAF
:100AF000641BA300F3586C229A6170BD04000010BF
:100B00002DE9F0410C460B4EC5002B1A4FEA830825
:100B100006EB0803988800F0F3FBB0FBF4F056F8FE
:100B2000083042081A6156F808301A69801A58616C
:100B3000BDE8F081040000107047FFFF094B9842A8
:100B40000BD0A3F58053984209D0A3F5783398428F
:100B500001D08420704785207047A4207047A320CF
:100B6000704700BF00400C4008B5FFF7E7FF00F0FA
:100B7000ADFB08BD4268002343600123836002236C
:100B800043608368002BFCD142607047034B98425E
:100B900001D0032070470420704700BF00400E4082
:100BA00070B50D4614461E46FFF7F0FF00F0A8FB97
:100BB00055B104FB06F404EB40006400B0FBF4F014
:100BC000C0B20138C0B270BD04EB840304EB43042F
:100BD000F1E7FFFF38B505460C46FFF7D7FF0123C5
:100BE0001A46194600F054FB0021E960084A2260C9
:100BF000217161710B232846FFF7D2FF000240F4F8
:100C000000132079400400F460201843286038BDA8
:100C1000801A060070B505460E46046824F46F2459
:100C200024F470640A600B79C3F10B03DBB24979D9
:100C3000FFF7B6FF44EA002033795B0403F4602336
:100C400003432B6070BD08B50A710A68FFF7E2FF25
:100C500008BDFFFF70B58AB005460E4614464CF23B
:100C600050330993062818D0002301222946042076
:100C700000F0C8FA4A4A536C43F0010353648DF8FC
:100C8000085001A9304600F035FA464B9E4216D96D
:100C9000019B13F0400F03D0FEE700F08DF9E3E76E
:100CA00013F0800F05D023F0800301930025012667
:100CB00007E0049B013304930125002601E0002591
:100CC0002E469DF80820019B43EA0263059A43EAF9
:100CD0000243039A43EA0233049A43EA022343F4A9
:100CE00000632F4A53642E4B1B6C13F0010FFAD094
:100CF000002301220921042000F084FA06B34CF2FB
:100D000050330993099B5A1E0992002BFAD1019B7B
:100D100043F0800301939DF8082043EA0263059A9B
:100D200043EA0243039A43EA0233049A43EA022362
:100D300043F400631A4A5364002C2ED10AB070BDEC
:100D4000002DF9D04CF250330993099B5A1E099299
:100D5000002BFAD1049B5A1E04929DF80810019BA7
:100D600043EA0163059943EA0143039943EA0133E6
:100D700043EA022343F40063094A5364DCE70A4868
:100D800000EB8401CB788A78497810F8240000F0D1
:100D900039FA0134112CF2D9D0E70024FAE700BF68
:100DA0000000054080778E06E82A001A08B5692001
:100DB00000F0A6FA014B186008BD00BF68010010E2
:100DC000F0B40B6813F0800F02D023F040030B60E7
:100DD000074601253AE04B6903FB02F3B3FBF5F349
:100DE0001CE01C46B0EB040C27D4674506D98D6087
:100DF000771CCF600A618C61CB6167460132B2F526
:100E0000807F1DDC0C6814F0400FE4D0731C02FAE4
:100E100003FC4B6903FB0CF3B3FBF5F3DFF838C0BD
:100E20006345EBD9DFF834C0634509D814F0800F6F
:100E3000D7D1741C23FA04F4D4E7CCF1000CD4E726
:100E40000136032E01DC0122D9E70135042D01DC36
:100E50000026F6E7F0BC7047FF5E4C0900D0121385
:100E6000F0B599B005460C465C22002101A801F0BE
:100E7000DFFD802300936369059323798DF80430A7
:100E800069462846FFF79CFF069BAB4227D0EB1A2A
:100E90002ED41E46109B23F04003109363691593D4
:100EA00023798DF8443010A92846FFF789FF169B57
:100EB000AB421FD0EB1A25D41F462B4B9D4223D9A2
:100EC0000E9BED1A33D4AE423BDCBE4231DC6D46A4
:100ED0000FCD0FC495E80F0084E80F0006E06D46C3
:100EE0000FCD0FC495E80F0084E80F0019B0F0BDD6
:100EF0005B42CEE710AD0FCD0FC495E80F0084E83C
:100F00000F00F3E75B42D7E74023089363690D9333
:100F100008A92846FFF754FF0E9BAB42D0D108AD7D
:100F20000FCD0FC495E80F0084E80F00DEE76D4297
:100F3000C9E710AD0FCD0FC495E80F0084E80F008E
:100F4000D4E7AF4207DB08AD0FCD0FC495E80F0023
:100F500084E80F00CAE710AD0FCD0FC495E80F006D
:100F600084E80F00C2E700BF80778E0630B40546E4
:100F700000231C2000E001331C2818D103EB43029E
:100F800051000C4A0A441479844210D003EB430107
:100F90004A0008498A5AAA42EDD803EB430251009D
:100FA000044A0A445288AA42E5D32046E4E730BC0A
:100FB000704700BF3C2B001A82B04FF47A73019344
:100FC0000D4A936923F0020192698A4201D00A4ACC
:100FD000916123F00303094A1168094A914201D93A
:100FE00043F00403044A9361019B5A1E0192002BB3
:100FF000FAD102B0704700BF00000540E42A001A91
:10100000FF2C31011230054B53F8200010F0010F76
:1010100002D1C0F304607047112070470000054002
:1010200000F11202034B53F82220034B185C00EA34
:101030009200704700000540342B001A08B51028B4
:101040000AD8DFE800F0440B0D18210924272A2DC7
:1010500009093034383C400000203AE01E4838E0AE
:101060001E4BD3F82C3103F00703042B01D01C488E
:101070002FE000202DE0194BD3F82C3103F00703AB
:10108000042B27D0164824E0164B186821E0164B95
:1010900018681EE0154B18681BE0144B586818E0E0
:1010A00000F068F815E0002100F09AF811E0012145
:1010B00000F096F80DE0022100F092F809E003211B
:1010C00000F08EF805E0042100F08AF801E04FF40A
:1010D000004008BD0648FCE7001BB7000030044094
:1010E00040787D01B82A001AE42A001A2001001075
:1010F00080F0FA0238B505460C460879FFF79EFFE6
:101100006061194B2B44194A934221D818B38023AC
:1011100023600023A360E360B5FBF0F32361144A6E
:10112000954203D903FB00F0A84207D02146284688
:10113000FFF796FEA3688BB1013BA360236983B1DF
:10114000E2680AB1013AE260013B2361002038BD48
:101150004FF0FF30FBE74FF0FF30F8E74FF0FF3084
:10116000F5E74FF0FF30F2E7103A6BFF1005940BF4
:10117000FF5E4C0930B583B0174D6C6CC4F303604F
:10118000FFF75CFF154B1B6801932B6C13F0010FED
:1011900020D0C4F30743C4F30132C4F30121C4F3E4
:1011A0008015013301320DF1080C614411F8041C63
:1011B00014F0800F08D13DB94900B3FBF1F3B0FB47
:1011C000F2F000FB03F003E0B0FBF2F003FB00F0F1
:1011D00003B030BD0020FBE700000540302B001AB3
:1011E00038B50C460846FFF70DFF05462046FFF7C9
:1011F00017FF04462846FFF721FF0134B0FBF4F047
:1012000038BDFFFF30B400F11604A40004F180449F
:1012100004F5A02464681B2813D811291AD00E4D98
:1012200025400AB145F400650BB145F0010545EADA
:1012300001651630800000F1804000F5A020456077
:1012400008E044F001041630800000F1804000F511
:10125000A020446030BC7047FEF7FFE01B280CD88C
:101260001630800000F1804000F5A020406810F0AA
:10127000010F04D1C0F304607047112070471120A2
:10128000704708B5FFF7EAFFFFF7D8FE08BDFFFF7C
:1012900071B901210AB141F00401022B0AD0B0F565
:1012A000A17F0AD3A0F59170064B43F83010704728
:1012B0000321EFE741F02001F1E72030024B43F832
:1012C000301070470020054000100540B0F5A17FA8
:1012D00009D3094AA0F5917052F8303043F0010368
:1012E00042F830307047054A203052F8303043F031
:1012F000010342F8303070470020054000100540DF
:1013000010B5B0F5A17F09D3A0F591730D4A52F83D
:10131000334014F0010F07D1002010BD00F120036D
:10132000094A52F83340F4E7FFF720FEFFF7A9FF20
:1013300014F0E00F03D10123B0FBF3F0EDE702233B
:10134000FAE700BF0020054000100540094B984215
:1013500009D003F58053984207D0A3F58023984223
:1013600005D00020704702207047032070470120FD
:10137000704700BF00100C4030B583B00446FFF743
:10138000E5FF01231A4619460E4D35F81000FFF708
:101390007FFF0723A3600023E3656360E3602362AC
:1013A000E36463652365084B9C4206D00323E36036
:1013B0001023A362019B03B030BD00232361A36906
:1013C0000193F3E7B02B001A0020084038B505461A
:1013D0000C46FFF7BBFF0C4B33F81000FFF790FFF4
:1013E0002301B0FBF3F3D9B2EA6842F08002EA606D
:1013F0002960C3F307226A60EA6822F08002EA608B
:10140000B0FBF3F0000938BDA82B001A2DE9F04F0E
:1014100083B001908846FFF799FF324B33F81000F4
:10142000FFF76EFF06464FF0FF3701244FF0000B29
:10143000A246D9462AE042424B1C17E00AB317469F
:10144000AB46A24699460135AC421ED93309300756
:10145000A4FB000104FB0311621908FB02F2002344
:1014600001F040F902460B460028E4DB9742EAD33C
:10147000002BE8D0190CE6D1022BDFD8002DDDD0EF
:10148000E1E71746AB46A246994601341FB10F2C3F
:1014900001D80025D8E7B9F1000F1ED0019A1146F6
:1014A000D36843F08003D3605FFA89F31360C9F314
:1014B00007235360D36823F08003D3604FEA0A13F5
:1014C000DBB20BF00F0213438B6233090AFB03F309
:1014D000DA4409FB0AF9B3FBF9F9484603B0BDE861
:1014E000F08F00BFA82B001A08B50B4A0B4B9A606F
:1014F00003F50C731B6903F47F63202B04D0FFF703
:10150000A7F9FFF765FA08BD044AD2F8883043F41A
:101510007003C2F88830F2E70000001A00ED00E026
:10152000044B1860044A136843F001031360012060
:10153000704700BF3C000010001000E030B40B4DBD
:1015400000EB80002C182856087094F901101170D7
:1015500094F902201A7094F90320029B1A7094F9EE
:101560000420039B1A7030BC704700BFB82B001AD0
:1015700010F1020F00F0C780B0F1FF3F00F0C5800E
:1015800070B584B00C4600238DF80F308DF80E3006
:101590008DF80D308DF80C308DF80B300DF10B03FC
:1015A000019303AB00930DF10D030DF10E020DF14C
:1015B0000F01FFF7C3FF052C00F2A980DFE804F05C
:1015C0000981274563035348FFF7B6FA012004B0A9
:1015D00070BD9DF80F109DF80E309DF80D2042F063
:1015E000D00203EB41134C4941F823209DF80C3005
:1015F0009DF90B20012000FA02F1464C03F500632F
:1016000054F8232022EA010244F82320DFE79DF862
:101610000F109DF80E309DF80D2042F0C00203EB34
:1016200041133D4941F823209DF80C309DF90B20D2
:10163000012000FA02F1374C03F5006354F823202F
:1016400022EA010244F82320C1E79DF80F109DF81B
:101650000E309DF80D2042F0D80203EB41132E49C5
:1016600041F823209DF80C309DF90B20012000FA51
:1016700002F1284C03F5006354F8232022EA01020A
:1016800044F82320A3E79DF80F109DF80E309DF835
:101690000D2042F0C80203EB41131F4941F82320FB
:1016A0009DF80C309DF90B20012000FA02F1194C35
:1016B00003F5006354F8232022EA010244F82320B2
:1016C00085E79DF80F109DF80E309DF80D2042F033
:1016D000D00203EB4113104941F823209DF80C4040
:1016E0009DF90B20012000FA02F10A4B04F5006578
:1016F00053F82560314343F82510D2B203EB44136D
:101700000021995463E700207047002070470020B3
:101710005DE700BF00400F400060084010F1020F7D
:101720002DD0B0F1FF3F2CD010B584B00C46002373
:101730008DF80F308DF80E308DF80D308DF80C309F
:101740008DF80B300DF10B03019303AB00930DF1FA
:101750000D030DF10E020DF10F01FFF7EFFE9DF8E5
:101760000C309DF80B20211C18BF01215B0103F1F7
:10177000402303F570239954012004B010BD0020CC
:1017800070470020704710F1020F2CD0B0F1FF3FDE
:101790002BD000B585B000238DF80F308DF80E30BA
:1017A0008DF80D308DF80C308DF80B300DF10B03EA
:1017B000019303AB00930DF10D030DF10E020DF13A
:1017C0000F01FFF7BBFE9DF90C309DF80B205B016C
:1017D00003F1402303F57023985C003018BF01200B
:1017E00005B05DF804FB012070470020704710B57C
:1017F0000446FFF7C8FFB0FA80F149092046FFF719
:101800008DFF10BDFEE770472DE9F041002977D02C
:10181000054617460E4604463E49430003449A00D7
:1018200001EB02088858FFF79FF998F8043003F09D
:101830001F015B0901228A404033374941F82320C8
:1018400004EB44039A00334B13441B795A09543276
:10185000314951F8221003F01F03012202FA03F369
:101860001942EDD02B4905FA02F32B449A0001EB03
:1018700002088C582046FFF77DF92B01274AD750E4
:10188000636943F001036361A661636943F0020386
:101890006361636843F001036360D8F8082053B2C2
:1018A000002B30DB03F1604303F56143C02283F872
:1018B000002305EB45039A00164B13449A6853B274
:1018C000002B08DB02F01F025B09012101FA02F282
:1018D000134941F8232005EB4505AA000D4B13449D
:1018E0009A6853B2002B09DB02F01F025B09012149
:1018F00001FA02F260330A4941F82320BDE8F08181
:101900000020FFF77FFF02F00F02064B1344C022B6
:101910001A76CEE7A02C001A0030054040000010D7
:1019200000E100E0FCEC00E0CC2303FB00F070479A
:1019300030B401EB80050A4C44F8253000EB400040
:1019400083000848C35849B2586901EB4105012496
:10195000AC4020435861063143F8212030BC704729
:1019600040000010A02C001A10B401EB80020C4BB8
:101970000C4C43F8224000EB400083000A4AD25846
:1019800049B2012303FA01F01060506901EB4101F3
:1019900003FA01F120EA010151615DF8044B70473F
:1019A000400000100718001AA02C001A00EB40009D
:1019B00083000348C35849B2063143F821207047D9
:1019C000A02C001A38B5002401E00134E4B2032C45
:1019D00012D865B2094B1A6804F00F0101238B403D
:1019E0001A42F2D0064B53F82430002098470123C6
:1019F000AB40024A1360E8E738BD00BF0040084032
:101A00004000001038B5002401E00134E4B2032C9A
:101A100013D865B2094B1A6804F00F0101238B40FB
:101A20001A42F2D0231D064A52F82330002098476C
:101A30000123AB40014A1360E7E738BD005008407E
:101A40004000001038B5002401E00134E4B2032C5A
:101A500014D865B20A4B1A6804F00F0101238B40B9
:101A60001A42F2D004F10803064A52F8233000204B
:101A700098470123AB40024A1360E6E738BD00BF38
:101A800000300C404000001038B5002401E0013463
:101A9000E4B2032C14D865B20A4B1A6804F00F01A3
:101AA00001238B401A42F2D004F10C03064A52F88B
:101AB0002330002098470123AB40024A1360E6E739
:101AC00038BD00BF00400C404000001030B1054A56
:101AD0001060012021B1044B196070470020F9E724
:101AE00000207047380100102801001018B1044B85
:101AF00007221A607047024B00221A60704700BF2D
:101B000010E000E038B550EA01042AD010F1FF32AD
:101B100041F1FF33002B08BF322A27D2144BC3E90F
:101B20000001144B1B68A3FB004503FB01554FF458
:101B30007A7200232046294600F0D4FD0138B0F126
:101B4000807F09D20C4B58600C4AE02182F82310A8
:101B500000229A6007221A600120FFF7C7FF0120C8
:101B600038BD0020FFF7C2FF0020F9E70020F7E7AB
:101B7000800000106801001010E000E000ED00E0BF
:101B800008B5074A13685168013341F10001136039
:101B90005160044B1B6813B1034A1068984708BD95
:101BA00030010010380100102801001070B5044603
:101BB00000EB400293001F4AD6587569EDB215F04C
:101BC000010F09D020B91C4B1B680BB100209847AE
:101BD000032C13D0052C18D015F0200F0DD07368EE
:101BE00013F0020F09D024B9144B1B680BB100206D
:101BF0009847032C10D0052C15D070BD104B1B68D6
:101C0000002BE7D000209847E4E70E4B1B68002B21
:101C1000E2D000209847DFE70B4B1B68002BEAD08F
:101C200000209847E7E7094B1B68002BE5D0002010
:101C30009847E2E7D02C001A3C0100104801001040
:101C400040010010440100104C0100105001001030
:101C500000EB40008300034AD358586900F00100AC
:101C6000704700BFD02C001A00EB40008300034AED
:101C7000D358586900F02000704700BFD02C001ADC
:101C800000EB40008300024AD3581868C0B2704786
:101C9000D02C001A00EB40008300024AD358196090
:101CA000704700BFD02C001A2DE9F84380468946C2
:101CB000194C45002A189300E618E7583846FFF7F4
:101CC0005BFB49463846FFF781FB0723BB603B6857
:101CD0000123FB6530797379B27942F018020F491C
:101CE00003EB401341F82320F079337A727A42F003
:101CF000D00203EB401341F82320B8F1010F01D0CB
:101D0000BDE8F883064AD36C43F03003D3641A224B
:101D1000C1F80823F4E700BFD02C001A0060084087
:101D20000010084038B505460C46FFF791FF034602
:101D300008B9184638BD2846FFF7A2FF20700123D6
:101D4000F7E738B504460D462046FFF78DFF00281B
:101D5000FAD029462046FFF79DFF38BD08B503207D
:101D6000FFF724FF08BD08B50520FFF71FFF08BDDA
:101D700008B5044B1B681B68DB68034A106898476A
:101D800008BD00BF6C0100105401001008B5FFF73A
:101D90000DF81A4B1868FFF7C3FB01200021FFF76D
:101DA000B1FE05210020FFF7E3FB00212420FFF70F
:101DB000DFFB00212520FFF7DBFB00212620FFF7BA
:101DC000D7FB00212720FFF7D3FB01212820FFF7B5
:101DD000CFFB01212920FFF7CBFB01212A20FFF7B0
:101DE000C7FB01212B20FFF7C3FB01212C20FFF7AC
:101DF000BFFB01212D20FFF7BBFB08BD68010010D0
:101E000008B5044B1B780021034AD056FFF786FC27
:101E100008BD00BF88000010182D001A08B5044B3B
:101E20001B7A0021034AD056FFF778FC08BD00BF9B
:101E300088000010182D001A08B5044B1B7C0021E7
:101E4000034AD056FFF76AFC08BD00BF88000010A7
:101E5000182D001A08B5044B1B7E0021034AD056EA
:101E6000FFF75CFC08BD00BF88000010182D001AA9
:101E700008B5044B93F820300021034AD056FFF7F1
:101E80004DFC08BD88000010182D001A08B5044B41
:101E900093F828300021034AD056FFF73FFC08BDD5
:101EA00088000010182D001A08B5044B93F8303044
:101EB0000021034AD056FFF731FC08BD880000100E
:101EC000182D001A08B5044B93F838300021034A46
:101ED000D056FFF723FC08BD88000010182D001A0B
:101EE00008B5044B93F840300021034AD056FFF761
:101EF00015FC08BD88000010182D001A4FF4FA6375
:101F000003FB00F0034B83FB00231844C01100F5D2
:101F1000FA707047B7600BB670B5002415E0012168
:101F20000E4AD056FFF7FAFB0D4B03EBC4039D7826
:101F3000DE785878FFF7E2FFFFF7F6FC02463146FD
:101F40002846FFF733FD0134E4B2022C05D8044BD8
:101F500013F83430FF2BF6D0E1E770BD182D001ACE
:101F60008800001070B5032415E001210E4AD056F8
:101F7000FFF7D4FB0D4B03EBC4039D78DE78587854
:101F8000FFF7BCFFFFF7D0FC024631462846FFF7BB
:101F90000DFD0134E4B2052C05D8044B13F83430A0
:101FA000FF2BF6D0E1E770BD182D001A8800001055
:101FB00070B5062415E001210E4AD056FFF7AEFB9E
:101FC0000D4B03EBC4039D78DE785878FFF796FF3E
:101FD000FFF7AAFC024631462846FFF7E7FC01342A
:101FE000E4B2082C05D8044B13F83430FF2BF6D09C
:101FF000E1E770BD182D001A8800001008B544F6FE
:102000002060FFF791FC0C4A01460120FFF7FCFB22
:1020100044F62060FFF788FC084A01460220FFF7DB
:10202000F3FB44F62060FFF77FFC054A01460320DE
:10203000FFF7EAFB08BD00BF191F001A651F001A51
:10204000B11F001A0023082B07D8074A12F83320C3
:10205000824202D00133DBB2F5E7082B02D8581CCC
:10206000C0B27047002070478800001070B5044669
:102070000121124B1856FFF77BFA2046FFF7E2FFCB
:10208000D0B9FF20FFF7DEFF08B9002015E0421E9F
:102090000B4B03F8324003EBC204A578E678607876
:1020A000FFF72CFFFFF740FC6368024631462846E5
:1020B000FFF73EFC012000E0002070BD182D001A43
:1020C0008800001008B5FFF7BDFF08B9002008BD63
:1020D000431E074AFF2102F8331002EBC30300221C
:1020E0005A70D9789878FFF73FFC0120EFE700BFDE
:1020F0008800001008B5022908D0032909D009B1C9
:10210000002008BDFFF77AFF0120FAE7FFF7AEFFD6
:10211000F7E7FFF7D7FFF4E710B50C46FFF792FF9C
:1021200040B1B42C08D8431E044A02EBC3035C70D0
:10213000012000E0002010BD0020FCE78800001016
:10214000012303FA00F0014B586270470070084009
:10215000F8B5124B1A5C124BD969012383400B422C
:102160000CD010498C6802EB4202D1000E4A0A449E
:1021700054600B4AD361FFF7E3FFF8BD09498E684D
:10218000094D51008F18FC0027462C44A660646856
:10219000361B3D44EE60024A1362ECE7242D001A20
:1021A0000070084000400840D000001008B5002032
:1021B000FFF7CEFF08BD08B50120FFF7C9FF08BD36
:1021C00008B50220FFF7C4FF08BDFFFF81F0004102
:1021D00002E000BF83F0004330B54FEA41044FEA0C
:1021E000430594EA050F08BF90EA020F1FBF54EAA7
:1021F000000C55EA020C7FEA645C7FEA655C00F043
:10220000E2804FEA5454D4EB5555B8BF6D420CDD13
:102210002C4480EA020281EA030382EA000083EA96
:10222000010180EA020281EA0303362D88BF30BD36
:1022300011F0004F4FEA01314FF4801C4CEA11318C
:1022400002D0404261EB410113F0004F4FEA0333EB
:102250004CEA133302D0524263EB430394EA050F76
:1022600000F0A780A4F10104D5F1200E0DDB02FAE5
:102270000EFC22FA05F2801841F1000103FA0EF279
:10228000801843FA05F359410EE0A5F120050EF13F
:10229000200E012A03FA0EFC28BF4CF0020C43FA70
:1022A00005F3C01851EBE37101F0004507D54FF07D
:1022B000000EDCF1000C7EEB00006EEB0101B1F5CD
:1022C000801F1BD3B1F5001F0CD349085FEA300013
:1022D0004FEA3C0C04F101044FEA445212F5800F1E
:1022E00080F09A80BCF1004F08BF5FEA500C50F1BB
:1022F000000041EB045141EA050130BD5FEA4C0C9E
:10230000404141EB010111F4801FA4F10104E9D126
:1023100091F0000F04BF01460020B1FA81F308BF1D
:102320002033A3F10B03B3F120020CDA0C3208DDE9
:1023300002F1140CC2F10C0201FA0CF021FA02F1C4
:102340000CE002F11402D8BFC2F1200C01FA02F134
:1023500020FA0CFCDCBF41EA0C019040E41AA2BF59
:1023600001EB0451294330BD6FEA04041F3C1CDA21
:102370000C340EDC04F11404C4F1200220FA04F041
:1023800001FA02F340EA030021FA04F345EA0301EB
:1023900030BDC4F10C04C4F1200220FA02F001FAAD
:1023A00004F340EA0300294630BD21FA04F029462F
:1023B00030BD94F0000F83F4801306BF81F48011C8
:1023C0000134013D4EE77FEA645C18BF7FEA655C3B
:1023D00029D094EA050F08BF90EA020F05D054EA0D
:1023E000000C04BF1946104630BD91EA030F1EBF12
:1023F0000021002030BD5FEA545C05D14000494116
:1024000028BF41F0004130BD14F580043CBF01F508
:10241000801130BD01F0004545F0FE4141F47001EE
:102420004FF0000030BD7FEA645C1ABF19461046C9
:102430007FEA655C1CBF0B46024650EA013406BFCA
:1024400052EA033591EA030F41F4002130BD00BF89
:1024500090F0000F04BF0021704730B54FF4806446
:1024600004F132044FF000054FF0000150E700BFC7
:1024700090F0000F04BF0021704730B54FF4806426
:1024800004F1320410F0004548BF40424FF0000113
:102490003EE700BF42004FEAE2014FEA31014FEA56
:1024A00002701FBF12F07F4393F07F4F81F06051A5
:1024B000704732F07F4208BF704793F07F4F04BFF0
:1024C00041F40021704730B54FF4607401F00045CD
:1024D00021F000411CE700BF50EA010208BF70472D
:1024E00030B54FF000050AE050EA010208BF70471E
:1024F00030B511F0004502D5404261EB41014FF487
:10250000806404F132045FEA915C3FF4D8AE4FF08E
:1025100003025FEADC0C18BF03325FEADC0C18BF71
:10252000033202EBDC02C2F1200300FA03FC20FAC2
:1025300002F001FA03FE40EA0E0021FA02F114440F
:10254000BDE600BF4FF0FF3C06E000BF4FF0010CBE
:1025500002E000BF4FF0010C4DF804CD4FEA410CF2
:102560007FEA6C5C4FEA430C18BF7FEA6C5C1BD0BF
:1025700001B050EA410C0CBF52EA430C91EA030F40
:1025800002BF90EA020F0020704710F1000F91EA9D
:10259000030F58BF994208BF90422CBFD8176FEA6B
:1025A000E37040F0010070474FEA410C7FEA6C5C39
:1025B00002D150EA013C07D14FEA430C7FEA6C5C40
:1025C000D6D152EA033CD3D05DF8040B704700BF6C
:1025D0008446104662468C461946634600E000BFBA
:1025E00001B5FFF7B7FF002848BF10F1000F01BD8C
:1025F0004DF808EDFFF7F4FF0CBF012000205DF857
:1026000008FB00BF4DF808EDFFF7EAFF34BF0120DB
:1026100000205DF808FB00BF4DF808EDFFF7E0FF74
:1026200094BF012000205DF808FB00BF4DF808EDC5
:10263000FFF7CEFF94BF012000205DF808FB00BF2C
:102640004DF808EDFFF7C4FF34BF012000205DF80E
:1026500008FB00BF4FEA410212F5001215D211D556
:102660006FF47873B3EB625212D94FEAC12343F08F
:10267000004343EA505311F0004F23FA02F018BF11
:10268000404270474FF00000704750EA013005D1DA
:1026900011F0004008BF6FF0004070474FF000009D
:1026A000704700BF4A0011D212F5001211D20DD5A9
:1026B0006FF47873B3EB62520ED44FEAC12343F048
:1026C000004343EA505323FA02F070474FF00000F2
:1026D000704750EA013002D14FF0FF3070474FF0A1
:1026E0000000704753B94AB9002908BF00281CBF31
:1026F0004FF0FF314FF0FF3000F074B9ADF1080C2E
:102700006DE904CE00F006F8DDF804E0DDE902230F
:1027100004B070472DE9F047089E04468846002B18
:1027200040F085808A42154648D9B2FA82F24AB111
:10273000C2F1200701FA02F320FA07F7954047EAB1
:10274000030894404FEA154E230CB8FBFEF71FFA1E
:1027500085FC0EFB178843EA084307FB0CF19942FE
:1027600009D9EB1807F1FF3080F0E380994240F27D
:10277000E080023F2B445B1AA4B2B3FBFEF00EFBD9
:10278000103344EA034400FB0CFCA44509D92C197E
:1027900000F1FF3380F0CB80A44540F2C8800238BE
:1027A0002C4440EA0740A4EB0C0400271EB1D4409F
:1027B0000023C6E900433946BDE8F087002A53D01C
:1027C000B2FA82F2002A40F0B680491B4FEA154E59
:1027D0001FFA85F80127B1FBFEFC230C0EFB1C1130
:1027E00043EA014308FB0CF1994207D9EB180CF1BD
:1027F000FF3002D2994200F2EC808446591AA3B20B
:10280000B1FBFEF00EFB101443EA044408FB00F891
:10281000A04507D92C1900F1FF3302D2A04500F2E0
:10282000DC801846A4EB080440EA0C40BEE78B426B
:1028300008D9002E78D00027C6E90001384639466D
:10284000BDE8F087B3FA83F77FB98B4202D38242A7
:1028500000F2BD80841A61EB030301209846002E2C
:10286000A9D0C6E90048A6E7FFDEC7F12005BB40B6
:1028700022FA05FC4CEA030C01FA07F420FA05F8E9
:1028800021FA05F34FEA1C4E48EA0404B3FBFEF9B3
:10289000210C0EFB19331FFA8CF841EA034309FBA4
:1028A00008FA9A4502FA07F200FA07F10BD91CEB75
:1028B000030309F1FF3080F088809A4540F285805B
:1028C000A9F102096344A3EB0A03A4B2B3FBFEF02F
:1028D0000EFB103344EA034400FB08F8A04508D976
:1028E0001CEB040400F1FF336BD2A04569D9023818
:1028F000644440EA0940A4EB0804A0FB02894C456B
:10290000C6464B4654D351D0002E69D0B1EB0E02CF
:1029100064EB030404FA05F522FA07F3FC401D43B7
:10292000C6E90054002746E73746304643E71846D5
:1029300037E707461FE7C2F1200320FA03F7954067
:1029400001FA02F021FA03F34FEA154E3843010C65
:10295000B3FBFEF71FFA85F80EFB173341EA03417C
:1029600007FB08F38B4204FA02F407D9691807F150
:10297000FF3C28D28B4226D9023F2944CB1A81B290
:10298000B3FBFEF00EFB103341EA034100FB08F3FA
:102990008B4207D9691800F1FF3C10D28B420ED947
:1029A00002382944C91A40EA074714E74145ABD227
:1029B000B8EB020E69EB0C0201381346A4E760463F
:1029C000F0E7184695E76746D8E781467BE7384643
:1029D00045E7ACF1020C2B4410E702382C4421E708
:1029E0003746E8E6704700BF70B50D4D0D4C641BCF
:1029F000A4100026A64209D10B4D0C4CFDF7D5FEC4
:102A0000641BA4100026A64205D170BD55F8043BF6
:102A100098470136EEE755F8043B98470136F2E750
:102A2000282D001A282D001A282D001A2C2D001AE6
:102A300002440346934200D1704703F8011BF9E7B3
:102A4000010F01010200440002014400020244009F
:102A5000020A4000020B4000020C4000010050003E
:102A60000101500001025000010650000601500013
:102A700006045000060550000607540006085400DE
:102A800006095000060A5000060B5000060C5000C4
:102A90000F04F0000103D5000104D5000701160062
:102AA00007025600020352000204520009055200B8
:102AB0000906570006025700000000000004000845
:102AC00000090109050005010502000E010B010CBA
:102AD000030003030304050F0510030503060307A2
:102AE0000208FFFF001BB7000001010009090100F7
:102AF0000A0901000107010102090100060901009C
:102B00000C0901010D0901000E0901000F09010066
:102B10001009010011090100120901001309010047
:102B200014110100191101001A1101001B110100FB
:102B300001020408030F0F0FFF0000000000050052
:102B40000A00200024000900400040000500600049
:102B5000A6000400C000C3000200E000E000010085
:102B60000001000103002001200106004001400196
:102B70000C0042014201190062016201130082014E
:102B800082011200A201A2011100C201C2011000C3
:102B9000E201E2010F00020202020E002202220202
:102BA0000D00230223021C00C201A2018201620166
:102BB00081008200A100A2000401000201070500BB
:102BC000030D0105000108040200020204030002D3
:102BD000030400000200070400030C0302040509BB
:102BE00003010405080203040503020404050406A6
:102BF0000C000208060B0003070609000305060780
:102C000004050F0604000303040400020404050085
:102C100002050406000206040804050C040A040563
:102C20000E010300000A011400000F011200000D44
:102C3000011100000C0110000003070700030F0042
:102C4000010000010000000000060A00030606085B
:102C5000040510060500030406010003000409042E
:102C6000050D010400000B010F000002010000002F
:102C70000401010000080102000009010600010929
:102C8000020004050002010405010202040502021B
:102C90000A00000E020B00010B020C00010CFFFFEA
:102CA00000400840200000000C00000000500840D8
:102CB000210000000D00000000300C402200000048
:102CC0000E00000000400C40230000000F00000038
:102CD0000010084006040206050218000010084013
:102CE0000905070906071800002008400000000039
:102CF0000000190000100C400701060702061A0028
:102D000000100C40010F010110011A0000200C40BE
:102D10000203020204021B00000203040B10111242
:082D20001FFFFFFF000102FF8D
:042D2800010A001A82
:082D2C00E8F9FF7F010000003F
:102D340001FFFFFF00100A4022000000BD0A001A34
:102D4400000000000000000000000000000000007F
:102D540000000E4001000000BD0A001A000000003F
:102D640000000000000000000000000000CB280C60
:102D74000718001A0518001A0518001A0518001A71
:102D84000718001A0518001A0518001A0518001A61
:102D94000718001A0518001A0518001A0518001A51
:102DA4000718001A0518001A0518001A0518001A41
:102DB4000100000000000000FF000101011E001AD4
:102DC400FF0001021D1E001AFF000103391E001A34
:102DD400FF000201551E001AFF000202711E001AB4
:102DE400FF0002038D1E001AFF000301A91E001A32
:102DF400FF000302C51E001AFF000303E11E001AB0
:102E040000000000000000000000000000000000BE
:102E14001F01000304000000010000000000000086
:102E240000000000000000001E0101051000000069
:102E3400020000000000000000000000000000008C
:082E44001D010203060000005D
:040000051A000721B5
:00000001FF
